{
  "_format": "hh-sol-artifact-1",
  "contractName": "Attendance",
  "sourceName": "contracts/Attendance.sol",
  "abi": [
    {
      "inputs": [],
      "stateMutability": "nonpayable",
      "type": "constructor"
    },
    {
      "anonymous": false,
      "inputs": [
        {
          "indexed": true,
          "internalType": "string",
          "name": "sessionCode",
          "type": "string"
        },
        {
          "indexed": true,
          "internalType": "string",
          "name": "studentId",
          "type": "string"
        },
        {
          "indexed": true,
          "internalType": "address",
          "name": "studentAddress",
          "type": "address"
        },
        {
          "indexed": false,
          "internalType": "uint256",
          "name": "timestamp",
          "type": "uint256"
        }
      ],
      "name": "AttendanceMarked",
      "type": "event"
    },
    {
      "anonymous": false,
      "inputs": [
        {
          "indexed": true,
          "internalType": "string",
          "name": "sessionCode",
          "type": "string"
        },
        {
          "indexed": true,
          "internalType": "string",
          "name": "classId",
          "type": "string"
        },
        {
          "indexed": true,
          "internalType": "address",
          "name": "teacher",
          "type": "address"
        },
        {
          "indexed": false,
          "internalType": "uint256",
          "name": "expiryTime",
          "type": "uint256"
        }
      ],
      "name": "SessionCreated",
      "type": "event"
    },
    {
      "anonymous": false,
      "inputs": [
        {
          "indexed": true,
          "internalType": "string",
          "name": "studentId",
          "type": "string"
        },
        {
          "indexed": true,
          "internalType": "address",
          "name": "studentAddress",
          "type": "address"
        }
      ],
      "name": "StudentRegistered",
      "type": "event"
    },
    {
      "anonymous": false,
      "inputs": [
        {
          "indexed": true,
          "internalType": "address",
          "name": "teacher",
          "type": "address"
        }
      ],
      "name": "TeacherAuthorized",
      "type": "event"
    },
    {
      "anonymous": false,
      "inputs": [
        {
          "indexed": true,
          "internalType": "address",
          "name": "teacher",
          "type": "address"
        }
      ],
      "name": "TeacherDeauthorized",
      "type": "event"
    },
    {
      "inputs": [
        {
          "internalType": "uint256",
          "name": "",
          "type": "uint256"
        }
      ],
      "name": "allRecords",
      "outputs": [
        {
          "internalType": "string",
          "name": "sessionCode",
          "type": "string"
        },
        {
          "internalType": "string",
          "name": "classId",
          "type": "string"
        },
        {
          "internalType": "string",
          "name": "studentId",
          "type": "string"
        },
        {
          "internalType": "address",
          "name": "studentAddress",
          "type": "address"
        },
        {
          "internalType": "uint256",
          "name": "timestamp",
          "type": "uint256"
        },
        {
          "internalType": "bool",
          "name": "verified",
          "type": "bool"
        }
      ],
      "stateMutability": "view",
      "type": "function"
    },
    {
      "inputs": [
        {
          "internalType": "string",
          "name": "",
          "type": "string"
        },
        {
          "internalType": "string",
          "name": "",
          "type": "string"
        }
      ],
      "name": "attendanceRecords",
      "outputs": [
        {
          "internalType": "string",
          "name": "sessionCode",
          "type": "string"
        },
        {
          "internalType": "string",
          "name": "classId",
          "type": "string"
        },
        {
          "internalType": "string",
          "name": "studentId",
          "type": "string"
        },
        {
          "internalType": "address",
          "name": "studentAddress",
          "type": "address"
        },
        {
          "internalType": "uint256",
          "name": "timestamp",
          "type": "uint256"
        },
        {
          "internalType": "bool",
          "name": "verified",
          "type": "bool"
        }
      ],
      "stateMutability": "view",
      "type": "function"
    },
    {
      "inputs": [
        {
          "internalType": "address",
          "name": "teacher",
          "type": "address"
        }
      ],
      "name": "authorizeTeacher",
      "outputs": [],
      "stateMutability": "nonpayable",
      "type": "function"
    },
    {
      "inputs": [
        {
          "internalType": "address",
          "name": "",
          "type": "address"
        }
      ],
      "name": "authorizedTeachers",
      "outputs": [
        {
          "internalType": "bool",
          "name": "",
          "type": "bool"
        }
      ],
      "stateMutability": "view",
      "type": "function"
    },
    {
      "inputs": [
        {
          "internalType": "string",
          "name": "sessionCode",
          "type": "string"
        },
        {
          "internalType": "string",
          "name": "classId",
          "type": "string"
        },
        {
          "internalType": "uint256",
          "name": "durationMinutes",
          "type": "uint256"
        }
      ],
      "name": "createSession",
      "outputs": [],
      "stateMutability": "nonpayable",
      "type": "function"
    },
    {
      "inputs": [
        {
          "internalType": "string",
          "name": "sessionCode",
          "type": "string"
        }
      ],
      "name": "deactivateSession",
      "outputs": [],
      "stateMutability": "nonpayable",
      "type": "function"
    },
    {
      "inputs": [
        {
          "internalType": "address",
          "name": "teacher",
          "type": "address"
        }
      ],
      "name": "deauthorizeTeacher",
      "outputs": [],
      "stateMutability": "nonpayable",
      "type": "function"
    },
    {
      "inputs": [],
      "name": "emergencyStop",
      "outputs": [],
      "stateMutability": "nonpayable",
      "type": "function"
    },
    {
      "inputs": [
        {
          "internalType": "string",
          "name": "sessionCode",
          "type": "string"
        },
        {
          "internalType": "string",
          "name": "studentId",
          "type": "string"
        }
      ],
      "name": "getAttendanceRecord",
      "outputs": [
        {
          "components": [
            {
              "internalType": "string",
              "name": "sessionCode",
              "type": "string"
            },
            {
              "internalType": "string",
              "name": "classId",
              "type": "string"
            },
            {
              "internalType": "string",
              "name": "studentId",
              "type": "string"
            },
            {
              "internalType": "address",
              "name": "studentAddress",
              "type": "address"
            },
            {
              "internalType": "uint256",
              "name": "timestamp",
              "type": "uint256"
            },
            {
              "internalType": "bool",
              "name": "verified",
              "type": "bool"
            }
          ],
          "internalType": "struct Attendance.AttendanceRecord",
          "name": "",
          "type": "tuple"
        }
      ],
      "stateMutability": "view",
      "type": "function"
    },
    {
      "inputs": [
        {
          "internalType": "string",
          "name": "classId",
          "type": "string"
        },
        {
          "internalType": "uint256",
          "name": "offset",
          "type": "uint256"
        },
        {
          "internalType": "uint256",
          "name": "limit",
          "type": "uint256"
        }
      ],
      "name": "getClassRecords",
      "outputs": [
        {
          "components": [
            {
              "internalType": "string",
              "name": "sessionCode",
              "type": "string"
            },
            {
              "internalType": "string",
              "name": "classId",
              "type": "string"
            },
            {
              "internalType": "string",
              "name": "studentId",
              "type": "string"
            },
            {
              "internalType": "address",
              "name": "studentAddress",
              "type": "address"
            },
            {
              "internalType": "uint256",
              "name": "timestamp",
              "type": "uint256"
            },
            {
              "internalType": "bool",
              "name": "verified",
              "type": "bool"
            }
          ],
          "internalType": "struct Attendance.AttendanceRecord[]",
          "name": "",
          "type": "tuple[]"
        }
      ],
      "stateMutability": "view",
      "type": "function"
    },
    {
      "inputs": [
        {
          "internalType": "uint256",
          "name": "index",
          "type": "uint256"
        }
      ],
      "name": "getRecordByIndex",
      "outputs": [
        {
          "components": [
            {
              "internalType": "string",
              "name": "sessionCode",
              "type": "string"
            },
            {
              "internalType": "string",
              "name": "classId",
              "type": "string"
            },
            {
              "internalType": "string",
              "name": "studentId",
              "type": "string"
            },
            {
              "internalType": "address",
              "name": "studentAddress",
              "type": "address"
            },
            {
              "internalType": "uint256",
              "name": "timestamp",
              "type": "uint256"
            },
            {
              "internalType": "bool",
              "name": "verified",
              "type": "bool"
            }
          ],
          "internalType": "struct Attendance.AttendanceRecord",
          "name": "",
          "type": "tuple"
        }
      ],
      "stateMutability": "view",
      "type": "function"
    },
    {
      "inputs": [
        {
          "internalType": "string",
          "name": "sessionCode",
          "type": "string"
        }
      ],
      "name": "getSessionInfo",
      "outputs": [
        {
          "internalType": "string",
          "name": "",
          "type": "string"
        },
        {
          "internalType": "address",
          "name": "",
          "type": "address"
        },
        {
          "internalType": "uint256",
          "name": "",
          "type": "uint256"
        },
        {
          "internalType": "bool",
          "name": "",
          "type": "bool"
        }
      ],
      "stateMutability": "view",
      "type": "function"
    },
    {
      "inputs": [],
      "name": "getTotalRecords",
      "outputs": [
        {
          "internalType": "uint256",
          "name": "",
          "type": "uint256"
        }
      ],
      "stateMutability": "view",
      "type": "function"
    },
    {
      "inputs": [
        {
          "internalType": "string",
          "name": "sessionCode",
          "type": "string"
        },
        {
          "internalType": "string",
          "name": "studentId",
          "type": "string"
        }
      ],
      "name": "hasAttended",
      "outputs": [
        {
          "internalType": "bool",
          "name": "",
          "type": "bool"
        }
      ],
      "stateMutability": "view",
      "type": "function"
    },
    {
      "inputs": [
        {
          "internalType": "string",
          "name": "sessionCode",
          "type": "string"
        }
      ],
      "name": "isSessionValid",
      "outputs": [
        {
          "internalType": "bool",
          "name": "",
          "type": "bool"
        }
      ],
      "stateMutability": "view",
      "type": "function"
    },
    {
      "inputs": [
        {
          "internalType": "string",
          "name": "sessionCode",
          "type": "string"
        },
        {
          "internalType": "string",
          "name": "studentId",
          "type": "string"
        },
        {
          "internalType": "string",
          "name": "classId",
          "type": "string"
        }
      ],
      "name": "markAttendance",
      "outputs": [],
      "stateMutability": "nonpayable",
      "type": "function"
    },
    {
      "inputs": [],
      "name": "owner",
      "outputs": [
        {
          "internalType": "address",
          "name": "",
          "type": "address"
        }
      ],
      "stateMutability": "view",
      "type": "function"
    },
    {
      "inputs": [
        {
          "internalType": "string",
          "name": "studentId",
          "type": "string"
        },
        {
          "internalType": "address",
          "name": "studentAddress",
          "type": "address"
        }
      ],
      "name": "registerStudent",
      "outputs": [],
      "stateMutability": "nonpayable",
      "type": "function"
    },
    {
      "inputs": [
        {
          "internalType": "string",
          "name": "",
          "type": "string"
        }
      ],
      "name": "sessions",
      "outputs": [
        {
          "internalType": "string",
          "name": "classId",
          "type": "string"
        },
        {
          "internalType": "address",
          "name": "teacher",
          "type": "address"
        },
        {
          "internalType": "uint256",
          "name": "expiryTime",
          "type": "uint256"
        },
        {
          "internalType": "bool",
          "name": "isActive",
          "type": "bool"
        }
      ],
      "stateMutability": "view",
      "type": "function"
    },
    {
      "inputs": [
        {
          "internalType": "string",
          "name": "",
          "type": "string"
        }
      ],
      "name": "studentAddresses",
      "outputs": [
        {
          "internalType": "address",
          "name": "",
          "type": "address"
        }
      ],
      "stateMutability": "view",
      "type": "function"
    },
    {
      "inputs": [
        {
          "internalType": "address",
          "name": "newOwner",
          "type": "address"
        }
      ],
      "name": "transferOwnership",
      "outputs": [],
      "stateMutability": "nonpayable",
      "type": "function"
    }
  ],
  "bytecode": "0x608060405234801561001057600080fd5b50600080546001600160a01b0319163390811782558152600460205260409020805460ff191660011790556127a48061004a6000396000f3fe608060405234801561001057600080fd5b50600436106101375760003560e01c80637f51a455116100b8578063cc9138a51161007c578063cc9138a5146102cb578063ce09213b146102de578063e1c627c414610312578063e462dd3114610325578063e6e9c4ae14610338578063f2fde38b1461034b57600080fd5b80637f51a455146102345780638da5cb5b14610257578063a24d220314610282578063a70e004014610295578063b5a12781146102b857600080fd5b8063528bcbac116100ff578063528bcbac146101ce57806353f6f171146101e15780635b776fd9146101f457806363a599a4146102075780637e257dc81461020f57600080fd5b80630ad43cdb1461013c5780630aeacb5e146101655780632077c78e1461017657806323ee49841461018b5780634f4ba348146101ab575b600080fd5b61014f61014a36600461207d565b61035e565b60405161015c91906121ae565b60405180910390f35b60035460405190815260200161015c565b6101896101843660046121c8565b61062a565b005b61019e610199366004612205565b610766565b60405161015c9190612253565b6101be6101b93660046121c8565b610bc8565b60405161015c94939291906122b5565b6101896101dc36600461230b565b610c92565b6101896101ef366004612359565b610e84565b610189610202366004612359565b610ef7565b610189610fc3565b61022261021d366004612374565b610fef565b60405161015c9695949392919061238d565b61024761024236600461207d565b6111e2565b604051901515815260200161015c565b60005461026a906001600160a01b031681565b6040516001600160a01b03909116815260200161015c565b6101896102903660046123f0565b61122e565b6102476102a3366004612359565b60046020526000908152604090205460ff1681565b6102226102c636600461207d565b611524565b6101be6102d93660046121c8565b611567565b61026a6102ec3660046121c8565b80516020818301810180516005825292820191909301209152546001600160a01b031681565b61014f610320366004612374565b611651565b6102476103333660046121c8565b6118b5565b61018961034636600461245d565b61190f565b610189610359366004612359565b611ef7565b610366611f99565b60018360405161037691906124e5565b90815260200160405180910390206004018260405161039591906124e5565b9081526040519081900360200190205460ff166103f95760405162461bcd60e51b815260206004820152601a60248201527f4e6f20617474656e64616e6365207265636f726420666f756e6400000000000060448201526064015b60405180910390fd5b60028360405161040991906124e5565b90815260200160405180910390208260405161042591906124e5565b90815260200160405180910390206040518060c001604052908160008201805461044e90612501565b80601f016020809104026020016040519081016040528092919081815260200182805461047a90612501565b80156104c75780601f1061049c576101008083540402835291602001916104c7565b820191906000526020600020905b8154815290600101906020018083116104aa57829003601f168201915b505050505081526020016001820180546104e090612501565b80601f016020809104026020016040519081016040528092919081815260200182805461050c90612501565b80156105595780601f1061052e57610100808354040283529160200191610559565b820191906000526020600020905b81548152906001019060200180831161053c57829003601f168201915b5050505050815260200160028201805461057290612501565b80601f016020809104026020016040519081016040528092919081815260200182805461059e90612501565b80156105eb5780601f106105c0576101008083540402835291602001916105eb565b820191906000526020600020905b8154815290600101906020018083116105ce57829003601f168201915b505050918352505060038201546001600160a01b031660208201526004820154604082015260059091015460ff16151560609091015290505b92915050565b60018160405161063a91906124e5565b9081526040519081900360200190206003015460ff166106915760405162461bcd60e51b815260206004820152601260248201527153657373696f6e206e6f742061637469766560701b60448201526064016103f0565b6001816040516106a191906124e5565b90815260405190819003602001902060010154336001600160a01b0390911614806106d657506000546001600160a01b031633145b61072e5760405162461bcd60e51b8152602060048201526024808201527f4e6f7420617574686f72697a656420746f20646561637469766174652073657360448201526339b4b7b760e11b60648201526084016103f0565b600060018260405161074091906124e5565b908152604051908190036020019020600301805491151560ff1990921691909117905550565b6060600082118015610779575060648211155b6107bb5760405162461bcd60e51b815260206004820152601360248201527204c696d6974206d75737420626520312d31303606c1b60448201526064016103f0565b6000805b60035481101561082f578580519060200120600382815481106107e4576107e461253b565b90600052602060002090600602016001016040516108029190612551565b60405180910390200361081d5781610819816125dd565b9250505b80610827816125dd565b9150506107bf565b5080841061087f5760405162461bcd60e51b815260206004820181905260248201527f4f6666736574206578636565647320617661696c61626c65207265636f72647360448201526064016103f0565b828161088b82876125f6565b111561089e5761089b8583612609565b90505b60008167ffffffffffffffff8111156108b9576108b9611fda565b6040519080825280602002602001820160405280156108f257816020015b6108df611f99565b8152602001906001900390816108d75790505b50905060008060005b6003548110801561090b57508482105b15610bba5789805190602001206003828154811061092b5761092b61253b565b90600052602060002090600602016001016040516109499190612551565b604051809103902003610ba857888310610b9a57600381815481106109705761097061253b565b90600052602060002090600602016040518060c001604052908160008201805461099990612501565b80601f01602080910402602001604051908101604052809291908181526020018280546109c590612501565b8015610a125780601f106109e757610100808354040283529160200191610a12565b820191906000526020600020905b8154815290600101906020018083116109f557829003601f168201915b50505050508152602001600182018054610a2b90612501565b80601f0160208091040260200160405190810160405280929190818152602001828054610a5790612501565b8015610aa45780601f10610a7957610100808354040283529160200191610aa4565b820191906000526020600020905b815481529060010190602001808311610a8757829003601f168201915b50505050508152602001600282018054610abd90612501565b80601f0160208091040260200160405190810160405280929190818152602001828054610ae990612501565b8015610b365780601f10610b0b57610100808354040283529160200191610b36565b820191906000526020600020905b815481529060010190602001808311610b1957829003601f168201915b505050918352505060038201546001600160a01b031660208201526004820154604082015260059091015460ff1615156060909101528451859084908110610b8057610b8061253b565b60200260200101819052508180610b96906125dd565b9250505b82610ba4816125dd565b9350505b80610bb2816125dd565b9150506108fb565b509198975050505050505050565b8051602081830181018051600182529282019190930120915280548190610bee90612501565b80601f0160208091040260200160405190810160405280929190818152602001828054610c1a90612501565b8015610c675780601f10610c3c57610100808354040283529160200191610c67565b820191906000526020600020905b815481529060010190602001808311610c4a57829003601f168201915b505050506001830154600284015460039094015492936001600160a01b039091169290915060ff1684565b6000825111610cd85760405162461bcd60e51b8152602060048201526012602482015271125b9d985b1a59081cdd1d59195b9d08125160721b60448201526064016103f0565b6001600160a01b038116610d2e5760405162461bcd60e51b815260206004820152601760248201527f496e76616c69642073747564656e74206164647265737300000000000000000060448201526064016103f0565b60006001600160a01b0316600583604051610d4991906124e5565b908152604051908190036020019020546001600160a01b03161480610d9e5750806001600160a01b0316600583604051610d8391906124e5565b908152604051908190036020019020546001600160a01b0316145b610e055760405162461bcd60e51b815260206004820152603260248201527f53747564656e7420494420616c7265616479207265676973746572656420746f60448201527120646966666572656e74206164647265737360701b60648201526084016103f0565b80600583604051610e1691906124e5565b90815260405190819003602001812080546001600160a01b039384166001600160a01b031990911617905590821690610e509084906124e5565b604051908190038120907faa541cc9975b48a66ff0fcced1b6a07701b89f4bf70332c0e06f406f61b8e97990600090a35050565b6000546001600160a01b03163314610eae5760405162461bcd60e51b81526004016103f09061261c565b6001600160a01b038116600081815260046020526040808220805460ff19169055517f0d9c04191d21d4dd2f092a7d7c9d23bc5299ad478e190cd6b817ddb6a2a627459190a250565b6000546001600160a01b03163314610f215760405162461bcd60e51b81526004016103f09061261c565b6001600160a01b038116610f775760405162461bcd60e51b815260206004820152601760248201527f496e76616c69642074656163686572206164647265737300000000000000000060448201526064016103f0565b6001600160a01b038116600081815260046020526040808220805460ff19166001179055517f54308365be78b64b058b4450dac1f1e315739393170e2bcd7d96511177bf220a9190a250565b6000546001600160a01b03163314610fed5760405162461bcd60e51b81526004016103f09061261c565b565b60038181548110610fff57600080fd5b906000526020600020906006020160009150905080600001805461102290612501565b80601f016020809104026020016040519081016040528092919081815260200182805461104e90612501565b801561109b5780601f106110705761010080835404028352916020019161109b565b820191906000526020600020905b81548152906001019060200180831161107e57829003601f168201915b5050505050908060010180546110b090612501565b80601f01602080910402602001604051908101604052809291908181526020018280546110dc90612501565b80156111295780601f106110fe57610100808354040283529160200191611129565b820191906000526020600020905b81548152906001019060200180831161110c57829003601f168201915b50505050509080600201805461113e90612501565b80601f016020809104026020016040519081016040528092919081815260200182805461116a90612501565b80156111b75780601f1061118c576101008083540402835291602001916111b7565b820191906000526020600020905b81548152906001019060200180831161119a57829003601f168201915b505050506003830154600484015460059094015492936001600160a01b039091169290915060ff1686565b60006001836040516111f491906124e5565b90815260200160405180910390206004018260405161121391906124e5565b9081526040519081900360200190205460ff16905092915050565b3360009081526004602052604090205460ff166112865760405162461bcd60e51b81526020600482015260166024820152752737ba1030baba3437b934bd32b2103a32b0b1b432b960511b60448201526064016103f0565b60008351116112ce5760405162461bcd60e51b8152602060048201526014602482015273496e76616c69642073657373696f6e20636f646560601b60448201526064016103f0565b60008251116113125760405162461bcd60e51b815260206004820152601060248201526f125b9d985b1a590818db185cdcc8125160821b60448201526064016103f0565b600081118015611323575060b48111155b61136f5760405162461bcd60e51b815260206004820152601e60248201527f4475726174696f6e206d75737420626520312d313830206d696e75746573000060448201526064016103f0565b60018360405161137f91906124e5565b9081526040519081900360200190206003015460ff16156113db5760405162461bcd60e51b815260206004820152601660248201527553657373696f6e20616c72656164792065786973747360501b60448201526064016103f0565b60006113e882603c612648565b6113f290426125f6565b90508260018560405161140591906124e5565b9081526040519081900360200190209061141f90826126ae565b503360018560405161143191906124e5565b908152602001604051809103902060010160006101000a8154816001600160a01b0302191690836001600160a01b031602179055508060018560405161147791906124e5565b9081526020016040518091039020600201819055506001808560405161149d91906124e5565b908152604051908190036020018120600301805492151560ff199093169290921790915533906114ce9085906124e5565b6040518091039020856040516114e491906124e5565b604051908190038120848252907fc95ca72572433395ad68caa6e8df335d31df7c108ace5b905d63959cb3821b6c9060200160405180910390a450505050565b8151602081840181018051600282529282019482019490942091909352815180830184018051928152908401929093019190912091528054819061102290612501565b606060008060008060018660405161157f91906124e5565b908152604051908190036020019020600181015460028201546003830154835493945084936001600160a01b039093169260ff9091169084906115c190612501565b80601f01602080910402602001604051908101604052809291908181526020018280546115ed90612501565b801561163a5780601f1061160f5761010080835404028352916020019161163a565b820191906000526020600020905b81548152906001019060200180831161161d57829003601f168201915b505050505093509450945094509450509193509193565b611659611f99565b60035482106116a05760405162461bcd60e51b8152602060048201526013602482015272496e646578206f7574206f6620626f756e647360681b60448201526064016103f0565b600382815481106116b3576116b361253b565b90600052602060002090600602016040518060c00160405290816000820180546116dc90612501565b80601f016020809104026020016040519081016040528092919081815260200182805461170890612501565b80156117555780601f1061172a57610100808354040283529160200191611755565b820191906000526020600020905b81548152906001019060200180831161173857829003601f168201915b5050505050815260200160018201805461176e90612501565b80601f016020809104026020016040519081016040528092919081815260200182805461179a90612501565b80156117e75780601f106117bc576101008083540402835291602001916117e7565b820191906000526020600020905b8154815290600101906020018083116117ca57829003601f168201915b5050505050815260200160028201805461180090612501565b80601f016020809104026020016040519081016040528092919081815260200182805461182c90612501565b80156118795780601f1061184e57610100808354040283529160200191611879565b820191906000526020600020905b81548152906001019060200180831161185c57829003601f168201915b505050918352505060038201546001600160a01b031660208201526004820154604082015260059091015460ff16151560609091015292915050565b60006001826040516118c791906124e5565b9081526040519081900360200190206003015460ff16801561062457506001826040516118f491906124e5565b90815260200160405180910390206002015442111592915050565b8260018160405161192091906124e5565b9081526040519081900360200190206003015460ff166119825760405162461bcd60e51b815260206004820152601b60248201527f496e76616c6964206f7220696e6163746976652073657373696f6e000000000060448201526064016103f0565b60018160405161199291906124e5565b9081526020016040518091039020600201544211156119e55760405162461bcd60e51b815260206004820152600f60248201526e14d95cdcda5bdb88195e1c1a5c9959608a1b60448201526064016103f0565b6000835111611a2b5760405162461bcd60e51b8152602060048201526012602482015271125b9d985b1a59081cdd1d59195b9d08125160721b60448201526064016103f0565b6000825111611a6f5760405162461bcd60e51b815260206004820152601060248201526f125b9d985b1a590818db185cdcc8125160821b60448201526064016103f0565b8180519060200120600185604051611a8791906124e5565b908152604051908190036020018120611a9f91612551565b604051809103902014611ae85760405162461bcd60e51b8152602060048201526011602482015270086d8c2e6e640928840dad2e6dac2e8c6d607b1b60448201526064016103f0565b600184604051611af891906124e5565b908152602001604051809103902060040183604051611b1791906124e5565b9081526040519081900360200190205460ff1615611b775760405162461bcd60e51b815260206004820152601960248201527f417474656e64616e636520616c7265616479206d61726b65640000000000000060448201526064016103f0565b6000600584604051611b8991906124e5565b908152604051908190036020019020546001600160a01b0316905080611c2f5733905033600585604051611bbd91906124e5565b90815260405190819003602001812080546001600160a01b03939093166001600160a01b0319909316929092179091553390611bfa9086906124e5565b604051908190038120907faa541cc9975b48a66ff0fcced1b6a07701b89f4bf70332c0e06f406f61b8e97990600090a3611c92565b6001600160a01b0381163314611c925760405162461bcd60e51b815260206004820152602260248201527f4e6f7420617574686f72697a656420666f7220746869732073747564656e7420604482015261125160f21b60648201526084016103f0565b60018086604051611ca391906124e5565b908152602001604051809103902060040185604051611cc291906124e5565b9081526040805160209281900383018120805460ff19169415159490941790935560c0830181528783529082018590528181018690526001600160a01b0383166060830152426080830152600160a0830152518190600290611d259089906124e5565b908152602001604051809103902086604051611d4191906124e5565b90815260405190819003602001902081518190611d5e90826126ae565b5060208201516001820190611d7390826126ae565b5060408201516002820190611d8890826126ae565b506060820151600382810180546001600160a01b0319166001600160a01b03909316929092179091556080830151600483015560a0909201516005909101805460ff19169115159190911790558054600181018255600091909152815182917fc2575a0e9e593c00f959f8c92f12db2869c3395a3b0502d05e2516446f71f85b600690910201908190611e1b90826126ae565b5060208201516001820190611e3090826126ae565b5060408201516002820190611e4590826126ae565b5060608201516003820180546001600160a01b0319166001600160a01b039283161790556080830151600483015560a0909201516005909101805460ff191691151591909117905560405190831690611e9f9087906124e5565b604051809103902087604051611eb591906124e5565b604051908190038120428252907fd9f31ddadd93acd95728d69942635cec00185ed3558eae37213baf845d4ece8e9060200160405180910390a4505050505050565b6000546001600160a01b03163314611f215760405162461bcd60e51b81526004016103f09061261c565b6001600160a01b038116611f775760405162461bcd60e51b815260206004820152601960248201527f496e76616c6964206e6577206f776e657220616464726573730000000000000060448201526064016103f0565b600080546001600160a01b0319166001600160a01b0392909216919091179055565b6040518060c0016040528060608152602001606081526020016060815260200160006001600160a01b03168152602001600081526020016000151581525090565b634e487b7160e01b600052604160045260246000fd5b600082601f83011261200157600080fd5b813567ffffffffffffffff8082111561201c5761201c611fda565b604051601f8301601f19908116603f0116810190828211818310171561204457612044611fda565b8160405283815286602085880101111561205d57600080fd5b836020870160208301376000602085830101528094505050505092915050565b6000806040838503121561209057600080fd5b823567ffffffffffffffff808211156120a857600080fd5b6120b486838701611ff0565b935060208501359150808211156120ca57600080fd5b506120d785828601611ff0565b9150509250929050565b60005b838110156120fc5781810151838201526020016120e4565b50506000910152565b6000815180845261211d8160208601602086016120e1565b601f01601f19169290920160200192915050565b6000815160c0845261214660c0850182612105565b90506020830151848203602086015261215f8282612105565b915050604083015184820360408601526121798282612105565b6060858101516001600160a01b0316908701526080808601519087015260a09485015115159590940194909452509092915050565b6020815260006121c16020830184612131565b9392505050565b6000602082840312156121da57600080fd5b813567ffffffffffffffff8111156121f157600080fd5b6121fd84828501611ff0565b949350505050565b60008060006060848603121561221a57600080fd5b833567ffffffffffffffff81111561223157600080fd5b61223d86828701611ff0565b9660208601359650604090950135949350505050565b6000602080830181845280855180835260408601915060408160051b870101925083870160005b828110156122a857603f19888603018452612296858351612131565b9450928501929085019060010161227a565b5092979650505050505050565b6080815260006122c86080830187612105565b6001600160a01b039590951660208301525060408101929092521515606090910152919050565b80356001600160a01b038116811461230657600080fd5b919050565b6000806040838503121561231e57600080fd5b823567ffffffffffffffff81111561233557600080fd5b61234185828601611ff0565b925050612350602084016122ef565b90509250929050565b60006020828403121561236b57600080fd5b6121c1826122ef565b60006020828403121561238657600080fd5b5035919050565b60c0815260006123a060c0830189612105565b82810360208401526123b28189612105565b905082810360408401526123c68188612105565b6001600160a01b0396909616606084015250506080810192909252151560a0909101529392505050565b60008060006060848603121561240557600080fd5b833567ffffffffffffffff8082111561241d57600080fd5b61242987838801611ff0565b9450602086013591508082111561243f57600080fd5b5061244c86828701611ff0565b925050604084013590509250925092565b60008060006060848603121561247257600080fd5b833567ffffffffffffffff8082111561248a57600080fd5b61249687838801611ff0565b945060208601359150808211156124ac57600080fd5b6124b887838801611ff0565b935060408601359150808211156124ce57600080fd5b506124db86828701611ff0565b9150509250925092565b600082516124f78184602087016120e1565b9190910192915050565b600181811c9082168061251557607f821691505b60208210810361253557634e487b7160e01b600052602260045260246000fd5b50919050565b634e487b7160e01b600052603260045260246000fd5b600080835461255f81612501565b60018281168015612577576001811461258c576125bb565b60ff19841687528215158302870194506125bb565b8760005260208060002060005b858110156125b25781548a820152908401908201612599565b50505082870194505b50929695505050505050565b634e487b7160e01b600052601160045260246000fd5b6000600182016125ef576125ef6125c7565b5060010190565b80820180821115610624576106246125c7565b81810381811115610624576106246125c7565b6020808252601290820152712737ba1031b7b73a3930b1ba1037bbb732b960711b604082015260600190565b8082028115828204841417610624576106246125c7565b601f8211156126a957600081815260208120601f850160051c810160208610156126865750805b601f850160051c820191505b818110156126a557828155600101612692565b5050505b505050565b815167ffffffffffffffff8111156126c8576126c8611fda565b6126dc816126d68454612501565b8461265f565b602080601f83116001811461271157600084156126f95750858301515b600019600386901b1c1916600185901b1785556126a5565b600085815260208120601f198616915b8281101561274057888601518255948401946001909101908401612721565b508582101561275e5787850151600019600388901b60f8161c191681555b5050505050600190811b0190555056fea2646970667358221220f7fc63395d3be22412424642955dfbbe8c829bcf2c76e7bdcad64849d5f2a17e64736f6c63430008140033",
  "linkReferences": {},
  "deployedLinkReferences": {}
}